:020000040800F2
:1000000000000120CD7C0008117D0008117D000852
:10001000117D0008117D0008117D0008000000001E
:10002000000000000000000000000000117D00083A
:10003000117D000800000000117D0008117D0008FE
:10004000117D0008117D0008117D0008117D000858
:10005000117D0008117D0008117D0008117D000848
:10006000A52B0008851C0008117D0008117D0008E3
:10007000117D0008117D0008117D0008117D000828
:10008000117D0008117D0008117D0008117D000818
:10009000117D0008117D0008117D0008117D000808
:1000A000117D0008117D0008117D0008117D0008F8
:1000B0003D320008117D0008117D0008117D000807
:1000C000117D0008117D0008117D0008117D0008D8
:1000D000117D000841340008117D0008117D0008E1
:1000E000117D0008117D0008117D0008117D0008B8
:1000F000117D0008117D0008117D0008117D0008A8
:10010000117D0008117D0008117D0008117D000897
:10011000117D0008117D0008117D0008117D000887
:10012000117D0008117D0008117D0008117D000877
:1001300000000000000000000000000000000000BF
:1001400000000000000000000000000000000000AF
:10015000000000000000000000000000000000009F
:10016000000000000000000000000000000000008F
:10017000000000000000000000000000000000007F
:10018000000000000000000000000000000000006F
:10019000000000000000000000000000000000005F
:1001A000000000000000000000000000000000004F
:1001B000000000000000000000000000000000003F
:1001C000000000000000000000000000000000002F
:1001D000000000000000000000000000000000001F
:0401E0005FF8E0F1F3
:1001E4000348044B834202D0034B03B118477047C2
:1001F400E0000020E000002000000000054806495F
:100204000B1AD90F01EBA301491002D0034B03B120
:1002140018477047E0000020E000002000000000C4
:1002240010B5064C237843B9FFF7DAFF044B13B13A
:100234000448AFF300800123237010BDE0000020C8
:1002440000000000147D000808B5044B1BB10449EC
:100254000448AFF30080BDE80840CFE70000000089
:10026400E4000020147D0008044B02680A4201D017
:1002740000207047013BF8D101207047A18601009E
:10028400184B9A6942F008029A61DA6942F48002D2
:10029400DA61A3F582335A6822F47F425A605A68BD
:1002A40042F47F425A604FF440621A61A3F534432A
:1002B4001A6842F400421A601A6822F400421A6072
:1002C40024225A60B422DA6125221A621A6842F0A2
:1002D40001021A601A6842F480621A60024A1360CA
:1002E400704700BF001002400000002038B50546EA
:1002F400154B1C68154BA26992071CD42046236831
:10030400012143F4807340F8143BFFF7ADFFA0B91B
:1003140040F202420D4B2561616911420FD06369BD
:100324005B050FD5636923F480636361236843F439
:100334000073236001E0013BDDD1012038BD013BA6
:10034400EAD1FAE7A369F9E700000020A1860100D9
:100354000A4B70B51E68044606F114058021284630
:10036400FFF782FF40B9042128463461FFF77CFF80
:10037400003818BF012070BD0120FCE700000020F8
:10038400084B10B51C6840212046236843F4806361
:1003940040F8143BFFF768FF10B92069C0B210BDE4
:1003A4000020FCE7000000200A4B10B51C68402127
:1003B4002046236823F480632360236843F4007396
:1003C40040F8143BFFF750FF10B92069C0B210BDCC
:1003D4000020FCE700000020054B1B681A6842F46B
:1003E40000721A601A6842F480621A60704700BF93
:1003F400000000202DE9F04F054685B0002800F0EC
:10040400E0800027FF224FF00308DFF8D0B1744EDC
:100414008BF8007032717271B2718BF801708BF8C5
:1004240002708BF803708BF804708BF80570F2710E
:100434008BF806708BF80770CBF80870ABF80C706B
:100444004FF00009674A32605FFA89F404F1500AF8
:100454006400603CE4B220465FFA8AFAFFF746FF84
:10046400002836D0FFF7B8FF09F10109B9F1080FE8
:10047400EAD15C4A116841F4007111600397039951
:10048400B1F5FA5FC0F0A480116808F1FF3841F4B7
:1004940000411160116818F0FF0821F40041116057
:1004A4004FF0240151604FF0B401D1614FF02501A8
:1004B4001162116841F001011160116841F4806119
:1004C4001160BDD11368326043F480634046136009
:1004D40077E09BF800209BF8011001328BF8002094
:1004E4009BF80220FA2001328BF80220B279FF2A0D
:1004F4004FF0010202FA09F242EA010208BF86F84B
:1005040006A08BF80120FFF723FF0028AAD19BF84F
:10051400032044F00104013220468BF80320FFF746
:10052400E5FE30B12046FFF757FFFFF7DFFE002856
:1005340098D19BF804206C1E01328BF804202246CB
:10054400291DCDE90021FFF71BFF009A019902F84C
:10055400010F8A42F5D1FFF727FF2A68224B687101
:100564001A60AA8886F807A09A800122104605F12D
:10057400050C14F8011F39B3FF294FF0000000D017
:1005840002466445F5D108BB1AB92878C04300F087
:10059400010001228BF807209BF805201149013244
:1005A4008BF805208BF80600FFF716FF0A6842F463
:1005B40080620A6000283FF457AF022386F805A042
:1005C400337105B0BDE8F08F0A46DAE70020E0E7B2
:1005D40000BF03990131039151E700BFFC000020E3
:1005E400000000200058004004010020074B1A7945
:1005F400FF2A08D05B79FF2B05D000B1027001B14E
:100604000B70012070470020704700BF00000020DD
:1006140010B5074C237800B1037011B105488079F7
:1006240008700AB161781170181E18BF012010BD3E
:10063400FC0000200000002030B5084C0346E0799F
:1006440058B11BB1A5681D60A5899D8011B1044BEB
:10065400DB790B700AB1A379137030BDFC00002064
:100664000000002010B510B1074CA478047011B13B
:100674000548C078087012B103490979117013B1A3
:10068400014A52791A7010BDFC000020002242F287
:10069400273182B0013801D202B070470192019B28
:1006A4008B42F7D800BF019B01330193F7E708B1F0
:1006B400014B1880704700BF08000020014B1888C8
:1006C400704700BF0800002010B5094C207803F0E3
:1006D40079FA207803F05AF8064A20780023012199
:1006E400128803F089F82078BDE8104003F032BA8C
:1006F4000A0100200800002070B5334C2078400126
:1007040000F5027003F034FD237800F01F015B0153
:1007140003F5027003F05AFD01214FF4B85003F0C1
:1007240055FD2078400100F5427003F021FD20784A
:10073400400100F5427003F01BFD132803463DD031
:1007440001D898B370BD172801D01C28FAD120789D
:1007540003F003FED0B1B0F5006F28BF4FF4006082
:1007640085B22A461949207803F022FB2078042117
:10077400400100F5027003F029FD2946134801F0F9
:1007840091F902221249207803F062FA207840019C
:1007940000F5427003F0ECFC1C28D3D1207803F060
:1007A40011FA2078BDE8704002F0F0BF094A2078C1
:1007B4000121BDE87040128803F01EB82078BDE81E
:1007C400704003F0C7B900BF0A0100200B010020EC
:1007D400F07E00080800002038B501250B4A0C4CB7
:1007E4009369322043F004039361236823F00F03D9
:1007F4002360236843F0030323606561FFF746FF2A
:1008040025616420BDE8384040E700BF0010024085
:100814000008014008B50749074803F0ABFE074943
:10082400074803F0E5FEBDE808400649064803F022
:10083400F5BE00BFBD2C0008AD2C0008CD2C00086F
:10084400CF2C0008D32C0008E92C00083C4AF0B552
:1008540013786BB940F2FE7153889BB28B4208D96E
:1008640093889BB213B10123137001E053809380EA
:10087400F0BD5388334C9BB2591C89B21344518048
:100884009871911D95885388ADB29BB29D4219D23F
:10089400558893889688ED1AADB2B6B295B193197E
:1008A4009F790D2FFBB20DD81F1F012F0E4413D8B3
:1008B400052D07D93379767943EA062303335B00A0
:1008C4009BB2CBB96528D3D153889188013B89B2B7
:1008D4009BB28B42CCD1C6E70A2B07D1092DF1D9A3
:1008E4003379767943EA06230533E8E70C2B0AD1FA
:1008F400022DE7D9B37803339D42E3D395882B4483
:100904009BB29380BEE70D2B06D1022DDAD9B378C2
:10091400013303EB4303EFE7062B08D0072B08D082
:10092400082B08D0092B08D034F81330C9E7042366
:10093400E2E70623E0E70723DEE70123DEE700BF63
:100944000C0900202C7D000810B5002001F03CFAB1
:100954002E4CA4F8060801F0DBFAA4F8080801F00C
:10096400E5FAC4F80C0801F0E7FAC4F8100801F03D
:10097400E5FA274A84F814089369102443F0100315
:1009840093610122234B1A611A6822F00F021A6044
:100994001A6842F001021A6002F0B0F903210F2034
:1009A40001F0A8FE002281B2204602F007FA04F109
:1009B4003000023400224FF40041C0B2E4B202F02D
:1009C400FDF9202CEAD1102403210F2001F092FE1E
:1009D400012281B2204602F0F1F904F13000013421
:1009E40001224FF40041C0B2E4B202F0E7F9202C36
:1009F400EAD100227120114602F0E0F9BDE810406E
:100A040001220021712002F0D9B900BF0C09002095
:100A1400001002400010014002282DE9F8430CBFE9
:100A24001A4D1B4D00246B1C1E4640F6180E2978E7
:100A3400DFF860C0DFF8588019448E420DD1082CCD
:100A4400C4F10802D2B24FF0FF0188BF0022181986
:100A540004F0F4FD2C70BDE8F88316F8012B172A76
:100A6400EBD80EFB02C797F81598B9F1000FE4D044
:100A740097F81778022FE0D108EB0207BF7C874272
:100A840002BF671C1A55FCB2D7E700BF2D1900201E
:100A940024190020CC1E002070B50021FF26114A25
:100AA400557A02F10A03CCB2A5420DD81478FF2579
:100AB40000220D4BD1B28C420DD80220FFF7ACFFBF
:100AC400BDE870400320A7E71C780131844208BFC9
:100AD4001E700133E7E719780132814208BF1D70A7
:100AE4000133E7E7241900202519002008B5064B37
:100AF400D86A08B101F00AFC01224FF400417020C9
:100B040002F05CF9042008BD24190020F8B54478EB
:100B14008778172C07F1030516D80023FF221E46F9
:100B24004FF0010C0330D9B28F420FD80F4B03EBB7
:100B340084010E63191981F890203022A833002112
:100B440002FB043004F07AFD2846F8BD10F8011BBE
:100B5400172908D88C4206D0FF2A08BF0A460CFA87
:100B640001FE46EA0E060133DDE700BF241900202A
:100B74002DE9F04745788778172D07F1010606EB34
:100B840046061ED83022DFF878800021C41C02FB00
:100B9400058004F053FD00214FF0180E8C46FF220F
:100BA4004FF001090EFB05FEA8F1A800CBB2BB4231
:100BB4000AD3144B03EB85012B44C1F830C083F8EE
:100BC40090203046BDE8F087A04618F8033B172B69
:100BD40013D89D4211D0B4F801A0BAF1000F0CD083
:100BE400FF2A08BF1A460EEB030400EB4404A4F8E2
:100BF400A8A009FA03F44CEA040C44460131D5E7F1
:100C0400CC1900202419002030B543788278C178AB
:100C14000479A5B08DF814308DF815208DF81610D0
:100C24008DF81740B0F80500CDE9002185B26021A8
:100C3400274AADF81200CDE902450CA804F02EFEB7
:100C44000CA802F00BFCBDF8121005A801F07AFC08
:100C540028B1204802F002FC072025B030BD0DF178
:100C6400120105A801F03EFC08B91B48F2E706A8EA
:100C740003F018FF9DF8143006A88DF81E309DF877
:100C840015308DF81F309DF816308DF820309DF802
:100C940017308DF8213003F0DBFEBDF81200FFF7AA
:100CA40006FDFFF711FDBDF81230602103939DF896
:100CB40017300A4A02939DF816300CA801939DF848
:100CC400153000939DF8143004F0E8FD0CA8C1E73A
:100CD40081820008A2820008B6820008CC82000843
:100CE400072805D80870002048708870C8707047BD
:100CF40017289FBF0123083808704B709BBF002042
:100D04008B704FF0FF30CB70704740F6180373B50B
:100D14001D4C054603FB0043B3F80028511CA3F8FF
:100D2400001840F20C4101FB002293F8140801A9B9
:100D340034F81260FFF7D4FFA8B99DF805209DF898
:100D44000430FAB14033D8B231469DF8062002F09F
:100D540035F89DF8053033B90C4B9DF80420DB6A57
:100D640003EB42035E8340F6180000FB0544B4F82D
:100D74000238B4F800289A4224BF002384F81538B6
:100D840002B070BD5B00DDE7CC1E002024190020FA
:100D9400F7B54478064601A92046FFF7A1FF0028CD
:100DA400C0F2C1809DF8052001219DF80430002A7D
:100DB4006AD09DF807205D4F994007EB4202B2F8D4
:100DC400283589B223EA0101A2F8281574209DF878
:100DD400062001F0F3FF9DF805309DF80450002B28
:100DE40054D003210F2001F085FC1035EDB281B2FF
:100DF4009DF80620284601F0E1FF40F618024C4910
:100E0400B08802FB041292F81538B0F5806F0546DD
:100E140028BF4FF48065002B45D092F81738012B7A
:100E240041D192F81438A3423DD192F816387BB3DD
:100E3400B2F80428B2F5806F8EBF0023C2F5806338
:100E44009BB2AB4228BF2B4640F20C45002705FB62
:100E5400042501EB45051FFA87FC9C451BD340F68E
:100E6400180505FB04110A241A44003B18BF01238A
:100E7400A1F8042872880330624381F81638C1F857
:100E84000C28400003B0F0BD5B0092E76D00A8E7BA
:100E9400B2F80228CEE706EB470CBCF806C00137CF
:100EA40025F802CBD7E740F6180300224FF00A0CCE
:100EB40003FB041383F81448A3F80028A3F802588A
:100EC400A3F80428C3F80C2870884FF0FF0E0CFB1D
:100ED40000F0C3F808084FF4807007EB040CA3F883
:100EE400160807EB440007EB8407C3F81028A0F8A2
:100EF4002C258CF890E03A63A0F85C2590B28542EA
:100F04000AD840F6180303FB0411012381F81538AD
:100F1400B08803309840B5E706EB4200C088013240
:100F240023F8020BEAE70020ACE700BF24190020F5
:100F3400CC1E00202DE9F7434578172D54D890F89E
:100F4400029072B640F6180200242A4B4FF0FF08B4
:100F540002FB05333022284EC3F80048A3F80448A6
:100F6400C3F80C48C3F8104883F81548A3F816488A
:100F740006EB45037719A3F85C45A3F82C4506F165
:100F8400A80006EB8503214602FB05001C6387F8D5
:100F9400908004F053FB284687F88C4587F812802C
:100FA400FFF77AFD62B619F0010F1DD0284601A99A
:100FB400FFF796FEC0B99DF805309DF80400BBB15B
:100FC40040304FF400419DF80620C0B201F0F6FE17
:100FD4009DF8053043B9F36A33B19DF8042003EB5F
:100FE40042034FF400425A83032003B0BDE8F08368
:100FF4004000E5E7CC1E0020241900202DE9F04F25
:10100400457885B0044603A92846FFF769FE002801
:10101400C0F2A580B4F80490B4F808A0B9F5806FC4
:10102400CB4628BF4FF4806BA779DA45E3799DF866
:101034000D0028BFDA46182F28BFFF2701219DF88D
:101044000C20019300287DD09DF80F00454E91405F
:1010540006EB4000B0F8282589B222EA0101A0F885
:1010640028159DF80E20742001F0A8FE9DF80D208F
:101074009DF80C80002A67D003210F2001F03AFB71
:1010840008F110085FFA88F881B29DF80E204046F6
:1010940001F094FE40F6180200214FF00A0CDFF82C
:1010A400C880019B02FB058282F81458A2F800183C
:1010B400A2F802B8A2F80418C2F80C1882F816189C
:1010C40060888B420CFB00F0C2F8080814BF0320B0
:1010D4000120C2F8101882F8170888B2584536D390
:1010E4000021302206EB45032048A3F82CA57319F0
:1010F40006EB850A83F8907002FB0500CAF83010ED
:1011040004F09CFA172F9CBF012303FA07F74FF052
:1011140000034FEA450B5E44A6F85C3540F618031D
:1011240098BFCAF83070B9F1000918BF4FF001092F
:1011340003FB058585F81598A0880530400005B0A7
:10114400BDE8F08F52007FE74FEA480894E7081D96
:1011540004EB40004088013122F8020BBDE7002077
:10116400EDE700BF24190020CC1E0020CC1900207C
:1011740013B5827801A94078FFF7B2FD00280CDB93
:101184009DF80530052A28BF03229DF804103BB9B9
:101194000C4BD86A88B100F0EBFF042002B010BDFC
:1011A4001031CCB211460F2001F0A4FA9DF80620AC
:1011B40081B2204601F002FEEFE74C001034E4B2A5
:1011C400F0E700BF241900202DE9F04F7E4E0446BD
:1011D400F36A9FB0002B00F0D980C27805A940784B
:1011E400FFF77EFD0028C0F2D180A378022B00F225
:1011F400CD80002A00F0CE80642A28BF6422914664
:101204009DF8152001259DF814B0002A00F0C58032
:1012140005FA0BF5E2886D490292A28806A8CDE989
:101224000092627804F09AFB06A802F017F9A378FA
:101234009DF81720664906A804F090FB06A802F062
:101244000DF99DF81530ADB2002B00F0AA805F4671
:101254000BF1100A5FFA8AFA6FEA05083B46524618
:101264005C49009506A804F079FB06A802F0F6F89C
:101274009DF817300FFA88F806EB4303B3F82815E6
:10128400742008EA0101A3F828159DF8162001F03E
:1012940095FD9DF81530002B40F08B8003225946B4
:1012A400F06A00F065FF9DF81730722006EB4303E7
:1012B400B3F8A4159DF8162008EA0101A3F8A415B3
:1012C40001F07CFD38469DF81620A18801F076FDDA
:1012D4009DF81730722006EB4303B3F8A4159DF86C
:1012E40016202943A3F8A41501F068FD9DF81620E3
:1012F4003846E18801F062FD03210F2001F0FAF97C
:10130400A1780746013101F00301302001F0F2F920
:101314000743BFB2394650469DF8162001F04EFDF2
:101324009DF81730722006EB4303B3F8A4159DF81B
:10133400162008EA0101A3F8A41501F03FFD4B466D
:10134400A268A1789DF8170001F0EEFE9DF8173011
:10135400742006EB4303B3F828159DF8162029439F
:10136400A3F8281501F02AFD9DF81730019706EB24
:101374004303B3F8282518490092B3F8A4356278DA
:1013840006A804F0EBFA06A802F068F80C201FB0D7
:10139400BDE8F08F4FF0320932E74FEA4B018D4040
:1013A40038E74FEA4B07FFB207F1100A5FFA8AFAEF
:1013B40052E703210F2001F09DF99DF8162081B218
:1013C400504601F0FBFC6EE724190020ED82000872
:1013D4001E8300083A8300086683000873B5124E22
:1013E4000246F36AD3B1407801A9FFF779FC0028DB
:1013F40014DB55889DF805309DF80440A9B283B1EB
:1014040004F140009DF80620C0B201F0D7FC9DF81D
:1014140005301BB9F36A03EB44035D83042002B077
:1014240070BD60004030EDE7241900202DE9F3473A
:10143400DFF83CA10646DAF82C30002B00F085805A
:10144400407801A9FFF74CFC00287EDB9DF804805E
:101454009DF805304446002B7BD0012408F1100789
:1014640008F14005FFB2EDB204FA08F4A4B2E14376
:101474009DF807300FFA81F90AEB4303B3F82815F6
:10148400742009EA0101A3F828159DF8062001F04B
:1014940095FC9DF8073072200AEB4303B3F8A415BA
:1014A4009DF8062009EA0101A3F8A41501F086FCC1
:1014B4004FF4004140469DF8062001F07FFC9DF862
:1014C400073072200AEB4303B3F8A4159DF80620F5
:1014D4002143A3F8A41501F071FC4FF400414046E8
:1014E4009DF8062001F06AFC9DF807309DF806205F
:1014F4000AEB4303B3F8A415722009EA0101A3F827
:10150400A41501F05BFC03210F2001F0F3F8002186
:101514000446302001F0EEF844EA000141F4006191
:1015240038469DF8062089B201F048FC4FF400418A
:1015340028469DF8062001F041FCB178022904D820
:1015440000229DF8070001F06BFE032002B0BDE805
:10155400F087610001244FEA48085FFA88F808F12F
:10156400100708F14005FFB2EDB28C407EE700BFE2
:10157400241900202DE9F04186780546012E08BF84
:10158400032686B03246564901A804F0E7F901A8BB
:1015940001F064FF6C785349224601A804F0DEF997
:1015A40001A801F05BFFA988032E01F103064FEAAD
:1015B400460603D0304606B0BDE8F081172CF9D8B2
:1015C40040F618030127DFF82081E87803FB048341
:1015D40083F815780227003818BF0120B1F5806F11
:1015E40028BF4FF48061002283F817783F4F0635F7
:1015F40007EB040C83F81448A3F80218A3F8002896
:101604008CF88C0590B2814216D82046FFF744FA34
:1016140003223B199A7400233978354AD8B2884298
:1016240010D30320FFF7F8F93B78072B4CD8FA18AE
:10163400013354703B700AE035F8020B013223F891
:10164400020BDFE712F8010B01338442E6D1294B88
:101654009A6942F001029A619A6942F010029A6111
:10166400254A136823F470431360136843F48043DA
:101674001360224B996821F470419960996841F490
:1016840000519960D3F8001441F00801C3F8001424
:10169400D3F8081441F00801C3F80814D3F80C1463
:1016A40041F00801C3F80C1492681549C2F3C00252
:1016B4004A700822C3F814241022124B83F8092319
:1016C4004FF400721A6075E740F6180303FB0488B0
:1016D400002388F81538FF233C44A3746AE700BF4D
:1016E40099830008A3830008CC1E0020241900203D
:1016F40025190020001002400010014000000140A4
:101704000C00002000E100E010B5134903F01AFCBE
:10171400124903F05BFA0021044603F0FDFCC8B94A
:1017240020460F4903F016FD00B10D4C20460C492C
:1017340003F008FC0B4903F051FB4FF07C5103F01C
:1017440045FA03F011FD40F6FF7380B2984228BFBA
:10175400184610BD0024E9E7355EC640BC74D33F8B
:101764003333534000F07F4510B50446D0F80200EF
:10177400FFF7CAFF63781BB901F0E8FD062010BD2E
:10178400012BFBD101F0EAFDF8E72DE9F04100243B
:101794004FF0FF082346294A2949A2F29C47A2F2A6
:1017A400FC4CA2F28445A2F22C5000EB4406A6F8AD
:1017B4005C35AE46002681F81538A1F80038A1F84A
:1017C4000238A1F80438C1F80838C1F80C38C1F857
:1017D400103881F8143881F8163881F8173822F84F
:1017E400023B07F8018B4CF8043B0136182E2EF807
:1017F400023BFAD10134182C01F6180105F1300529
:10180400D3D103704FF000024FF0FF330D4D4272FD
:10181400C0F80A302246C0F8013000216B6045F858
:10182400053C05F2825003F009FF224605F1080049
:10183400FF21BDE8F04103F001BF00BF501E0020AE
:10184400CC1E00202E1900202DE9F74F0021002284
:10185400084601F0E5FC00220121002001F0E0FC33
:1018640000220221002001F0DBFC002200210120E3
:1018740001F0D6FC012100250846002201F0D0FC2D
:101884007D4E00220221012001F0CAFC2A4629468D
:101894007420A6F82855A6F82A55A6F8A455A6F843
:1018A400A65501F08BFA01222946742001F086FA2C
:1018B4002A462946722001F081FA01222946722023
:1018C40001F07CFA4FF4004801A9E8B2FFF708FAE6
:1018D400002848DA0135182DF6D1FFF756FF2A46BD
:1018E4000021664803F0AAFE2A46FF21644803F05B
:1018F400A5FE30220021634803F0A0FE302200211F
:10190400614803F09BFE2A46FF21604803F096FEDF
:10191400602200215E4803F091FE4FF490620021A2
:101924005C4803F08BFEFF225B4B01201A705A7057
:101934005A4B1A6822F00C021A609A6822F00C02C0
:101944009A60DA6822F00C02DA600C225A614FF4D1
:101954008072534BC3F880204FF40072C3F8802088
:1019640003B0BDE8F08F9DF804A09DF805305446FF
:10197400002B72D001240AF110090AF140075FFA22
:1019840089F9FFB204FA0AF4A4B26FEA040B9DF8D1
:1019940007300FFA8BFB06EB4303B3F8A415722050
:1019A4000BEA0101A3F8A4159DF8062001F006FA3C
:1019B4004FF4004150469DF8062001F0FFF99DF8D0
:1019C4000730722006EB4303B3F8A4159DF80620F4
:1019D4002143A3F8A41501F0F1F94FF40041504656
:1019E4009DF8062001F0EAF99DF807309DF80620DD
:1019F40006EB4303B3F8A41572200BEA0101A3F824
:101A0400A41501F0DBF903210F2000F073FE00217F
:101A14000446302000F06EFE44EA000141F4006107
:101A240048469DF8062089B201F0C8F94FF40041F8
:101A340038469DF8062001F0C1F99DF80530002BC9
:101A44007FF448AFF36A002B3FF444AF9DF80420C1
:101A540003EB4203A3F81A803CE7610001244FEA38
:101A64004A0A5FFA8AFA0AF110090AF140075FFA92
:101A740089F9FFB28C4087E724190020B01E0020AA
:101A840036190020801E0020501E0020B4190020AA
:101A940054190020CC1900200C000020000401403F
:101AA40000E100E02DE9F04106460D4600242E4FEA
:101AB400DFF8B880AC4202D30120BDE8F081325D8A
:101AC40030190D2AF8D8131F012B17D82B1B9BB2E2
:101AD400052BF1D94179037943EA012303335B00F0
:101AE4009BB2291B89B29942E6D308EB8202536860
:101AF40098470028E0DD0444A4B2DBE70A2A09D1B0
:101B04002B1B9BB2092BD7D94179037943EA0123D3
:101B14000533E4E70C2A06D12B1B9BB2022BCBD94D
:101B240083780333DDE70D2A08D12B1B9BB2022BEC
:101B3400C2D98378013303EB4303D2E7062A0AD0E0
:101B4400072A0AD0082A0AD0092ACED00B2A08D09C
:101B540037F81230C5E70423C3E70623C1E7072398
:101B6400BFE70323BDE700BF527D00080C0000203F
:101B74002DE9F84F3E4B3F4C9E68A3F580639D686A
:101B84002378C6F38006FF2B637808BF2670FF2BEB
:101B94002378C5F3C00508BF6570B34213D0002B8A
:101BA4000CBFB1464FF00009002740F6180BDFF8D0
:101BB400C880DFF8C8A098F80920FBB29A421DD863
:101BC4000220FEF729FF6378AB4213D0002B0CBF31
:101BD400A9464FF00009002740F6180BDFF898805B
:101BE400DFF898A098F80020FBB29A4223D803208B
:101BF400FEF712FF26706570BDE8F88F4344987AAB
:101C0400172810D80BFB00A393F815285AB193F8A2
:101C14001738022B07D108EB000393F88C3523B94E
:101C2400B9F1000F04D00137C5E7B9F1000FFAD0BC
:101C3400FFF76BF8F7E743445878172810D80BFBE5
:101C440000A393F815285AB193F81738022B07D13B
:101C540008EB000393F88C3523B1B9F1000F04D1DC
:101C64000137BFE7B9F1000FFAD1FFF74EF8F7E7F4
:101C7400001401400C00002024190020CC1E002078
:101C840010B5044C63691B0703D5FFF771FF0823E4
:101C9400636110BD00040140704700BF2E4B82B049
:101CA4001A6842F480321A601A689103FCD52B4AF0
:101CB400116841F010011160116821F007011160F1
:101CC400116841F0040111605A6822F47F5222F035
:101CD40030025A605A685A605A6842F480625A6004
:101CE4005A685A605A6822F47C125A605A6842F45C
:101CF40080325A605A6842F4E0125A601A6842F01C
:101D040080721A601A689201FCD55A6822F00302A4
:101D14005A605A6842F002025A605A6802F00C0291
:101D2400082AFAD100230E4A0093009B93420ADD4D
:101D340000230B4A0193019B934208DD094B0A4A95
:101D44001A6002B07047009B01330093EDE7019BDA
:101D540001330193EFE700BF00100240002002406E
:101D6400FF083D004800002000A24A04054B5A68C1
:101D740022F008021204120C5A605A681207FCD5A9
:101D8400704700BF00280040024B82B2000C1A6169
:101D940058617047006C00400A4B5A6A900706D499
:101DA4005A6A42F001025A625A6A9107FCD51A6AC9
:101DB40012045FBF1A6A22F4407242F402421A62A9
:101DC400704700BF001002402DE9F84F4B4D4C4ABC
:101DD400EB69DFF830A143F0C053EB6113684A4C60
:101DE40043F4807313600746DAF804B0DAF80C8021
:101DF400FFF7D2FFFFF7BAFFA0690023E1696A6A1F
:101E0400DFF8089102F08066C2F3806289F800204E
:101E14004AF25A52C9F80430DAF808C094450FD18E
:101E24001FFA8BF31FFA88F241EA0041012F354C67
:101E340036D1002608466660FFF7A6FF334651E018
:101E4400CAF80820CAF80430CAF80C30FFF7A4FF17
:101E5400FFF78CFF63689A06FCD5636849F63F4236
:101E640043F0100363600023A360E260A361E361B5
:101E7400636823F010031B041B0C6360224C63682B
:101E84009B06FCD5FFF788FFFFF770FFA069E169A7
:101E940041EA00410846FFF777FF00221346C5E7F1
:101EA400002EC7D0666920694FF6FF74A24218BF9E
:101EB4000132144C40EA0640A1EB000018BF92B274
:101EC400C9F80400E26023B90846FFF75DFF012367
:101ED40007E01428F8D84FF6FF72934201D001337B
:101EE4009BB26360064918460A6822F480720A604D
:101EF4006A6A42F080726A62BDE8F88F001002409C
:101F040000700040006C0040002800400CE10020FC
:101F1400044AD36943F0C053D361034BD86880B2F9
:101F2400704700BF00100240006C0040014B58682D
:101F3400704700BF0CE1002014207047014B187853
:101F4400704700BF0CE1002001EB8202401A91426D
:101F540000D17047435841F8043BF8E70E4B1A6927
:101F6400120641BF0D4A5A6002F188325A60DA689B
:101F7400D107FCD41A6942F002021A6158611A6945
:101F840042F040021A61044BDA68D207FCD41A69A1
:101F940022F002021A6170470020024023016745C3
:101FA400F8B500242A4B15461A690E46110641BF9E
:101FB400284A5A6002F188325A60FFF7CFFF244B57
:101FC400AC4205D11A69002042F080021A611BE07C
:101FD40056F824101A698FB242F001021A61090CF2
:101FE4000780DA68D207FCD4DA68970642BFDA6859
:101FF40042F02002DA601A6922F001021A61DA68FA
:10200400520702D54FF0FF30F8BDDA68D70602D583
:102014006FF00100F8E71A6942F001021A61418089
:10202400DA68D207FCD4DA68970642BFDA6842F06D
:102034002002DA601A6922F001021A61DA68510793
:10204400E0D4DA68D206E3D404300134B8E700BF40
:10205400002002402301674507B570B1130A8DF8CB
:1020640004108DF806200068032201A98DF80530BC
:1020740000F0B8FA03B05DF804FB6FF01200F9E762
:1020840037B5104B15461A889B780446ADF80420E2
:102094008DF8063090B1002241F08001FFF7DCFF9B
:1020A400FF230322206801A98DF8043000F09AFA76
:1020B400BDF805305BBA2B8003B030BD6FF0120061
:1020C400FAE700BF5C7D0008F7B517460DF106027C
:1020D40005460E461C46FFF7D3FF00280BDBBDF870
:1020E4000620314622EA0702224392B22846ADF87E
:1020F4000620FFF7B1FF03B0F0BD38B50A460C4621
:1021040071210546FFF7A8FF0028A4BF0020EC803A
:1021140038BD38B50A460C4674210546FFF79CFFC6
:102124000028A4BF00202C8138BD70B590F83A3047
:1021340004468B420D46164617D9002A02790CBF75
:1021440000234FF400636AB101F11000C1B24FF4EF
:1021540000622046FFF7B8FF002802DB00202C4471
:10216400A67270BD48001030F0E76FF00100F8E788
:10217400F8B590F83A3004468B420E46174618D903
:1021840003799BB101F1100539460F2000F0B2FA32
:10219400EDB283B20F2229462046FFF795FF0028AF
:1021A40003DB0020344484F83B70F8BD4D00103547
:1021B400EAE76FF00100F8E7F8B590F83A30044622
:1021C4008B420E4617461AD90379ABB101F11005BB
:1021D40039464FF4C06000F08DFAEDB283B24FF48B
:1021E400C06229462046FFF76FFF002803DB00206A
:1021F400344484F84B70F8BD4D001035E8E76FF0B7
:102204000100F8E7F8B590F83A3004468B420E46E0
:1022140017461AD90379ABB101F1100539464FF4C9
:10222400E07000F067FAEDB283B24FF4E072294631
:102234002046FFF749FF002803DB0020344484F8DC
:102244005B70F8BD4D001035E8E76FF00100F8E76A
:1022540070B590F83A3004468B420D4616460FD9B5
:1022640002FA01F301228A409BB2722192B2FFF773
:102274002BFF002803DB00202C4484F87B6070BD16
:102284006FF00100FBE7F8B590F83A3004468B4252
:102294000E46174618D903799BB101F1100539464A
:1022A400302000F027FAEDB283B2302229462046CE
:1022B400FFF70AFF002803DB0020344484F86B7026
:1022C400F8BD4D001035EAE76FF00100F8E737B5C7
:1022D40090F83A3004468B420D4614D973210DF11F
:1022E4000602FFF7CDFE00280BDB0122BDF8061025
:1022F400AA404A4092B273212046ADF80620FFF767
:10230400ABFE03B030BD6FF00100FAE74FF40043B9
:1023140070211A46D8E62DE9F341037905460C46A7
:102324001646002B42D020312846C9B201AAFFF735
:10233400A7FE002837DB2B79002B3AD004F13001BB
:102344002846C9B20DF10602FFF79AFE00282ADBDF
:102354002B1993F83B301A4F07EBC307D7F80480C7
:10236400404602F0E7FC0146304602F02DFC4FF0F7
:102374008F4102F033FD0646B868A0EB080002F076
:10238400D9FC0146304602F0DDFD02F0EDFE05EB1E
:10239400440382B25A832B7973B104F14001284675
:1023A400C9B2FFF759FE02B0BDE8F08149002031FF
:1023B400BAE761003031C3E761004031EFE700BFA5
:1023C4005C7D000884B02DE9F84309AC84E80E0074
:1023D40080468C21012000F0F6F80646002869D0DA
:1023E400214600F0F6F8041E5CDB9DF825303371BD
:1023F40043BB082386F83A303046BDF82610FFF771
:102404007CFE041E4EDB3046BDF82810FFF781FE2B
:10241400041E47DB002796F83A305FFA87F94B45EC
:1024240014D800227C213046FFF716FE041E39DB47
:102434002248C8F8006003F0EBF92046BDE8F843F1
:1024440004B07047012BD7D11023D3E709F120033F
:102454000DEB030549463046AA7EFFF789FE041EAC
:1024640020DB4946304695F82A20FFF7A5FE041ED6
:1024740018DB4946304695F83A20FFF7C3FE041EA0
:1024840010DB49463046AA7AFFF74FFE041E09DBEB
:102494004946304695F84A20FFF7F5FE041E07F139
:1024A4000107B8DA2146064803F030F9304600F057
:1024B4008FF8C2E76FF00B04BFE700BFAD830008DD
:1024C400CE83000838B5044640B1006800F088F8AF
:1024D4000546204600F07CF8284638BD6FF012050A
:1024E400FAE700BF002330B585B00D460446CDE9B8
:1024F40001330393E0B1D9B10322104801A9FFF7D6
:1025040023FD0F4B019A9A4212D1029B1A0A627060
:102514001A0CA270BDF80C2023701B0EE3702A80E5
:1025240021784B1EDBB2DE2B02D87F2900D012B9F2
:10253400002005B030BD0120FBE700BF00F807080C
:102544004746434E1FB5D8B10278531EDBB2DE2B8B
:1025540016D87F2A14D099B10B4B44780193837811
:102564001B0443EA04231343C278084843EA026382
:10257400CDE90231032201A9FFF712FD04B010BD19
:102584004FF0FF30FAE700BF4746434E00F8070814
:102594000148FFF7E3BC00BF00F80708002282B03F
:1025A4000092009B834201D302B070470192019BC9
:1025B400B3F5FA5F03DB009B01330093F1E7019B62
:1025C40001330193F3E70148704700BF14E1002091
:1025D4007047024B03600020704700BFA0E1002059
:1025E4000020704738B50C4672B64FF080510B4B43
:1025F400A5181961AC420AD1094B986810F0800003
:10260400FBD14FF48052054B1A6162B638BD207875
:1026140000F0C8FB04F8010BECE700BF000C01401C
:102624000038004003460028B8BF00F11F035B11C7
:1026340051F8233043FA00F000F0010070470346DC
:1026440000200BB920207047DA07FCD45B08013066
:10265400F7E7034600200A46014653EA020C02D17A
:1026640040200021704713F0010FFBD15B080130BB
:1026740043EAC27341F100015208EEE70346002227
:10268400202003B9704713F0010F18BF10465B08F0
:102694000132F6E730B50C46002103460A464020D5
:1026A4000D4653EA040C00D130BD13F0010F1CBFDA
:1026B400294610465B08013243EAC47345F100051C
:1026C4006408EEE70B6870B51B1A06460125002066
:1026D400002BB8BF5B42954200D370BD51F8254032
:1026E400A41B002CB8BF64429C42BCBF28462346AE
:1026F4000135F0E710B50446FFF7A1FF01FA00F039
:10270400204010BDF8B5154607460E461C46FFF797
:10271400A0FFA0F1200105FA01F1C0F120028440DC
:102724000C4325FA02F2144305FA00F0384004EA97
:102734000601F8BD08B50140FFF781FF21FA00F05A
:1027440008BD08B50146FFF77AFF21FA00F008BD7D
:1027540038B50D460446FFF77CFF0246C0F1200160
:1027640005FA01F1A2F12000D4400C4325FA00F04F
:10277400204325FA02F138BDFFF780BF034600B1BC
:1027840021B98B4238BF0B4618467047B3FBF1F2B0
:10279400084601FB123103460029F7D17047F8B50A
:1027A40050EA010402D052EA03040AD10C469042D2
:1027B40074EB0301054601D215461C462846214602
:1027C400F8BD15461C4602F03FFD16461E4328463A
:1027D4002146F6D1F2E738B50D46044628B131B1A9
:1027E400FFF7CCFFB4FBF0F46C43204638BD0C4635
:1027F400FBE72DE9F8430446DDE908670D469046FA
:102804009946FFF7BBFFB4FBF0F4B5FBF0F034607E
:1028140038603368434501D8484502D90023336002
:102824003B60BDE8F8832DE9F74F9146DDE910459B
:10283400DDE90E76984683468A46FFF7B0FF0246E6
:102844000B46CDE900105846514602F0FDFCDDE987
:102854000032C4E900014846414602F0F5FCC5E9EE
:1028640000010C9B226893420D9A636872EB030388
:1028740003D3874276EB010305D200220023C4E987
:102884000023C5E9002303B0BDE8F08F0346002010
:1028940003B97047DA0748BF01305B08F8E710B5A1
:1028A4000146000AFFF7F2FF0446C8B2FFF7EEFF45
:1028B400204410BD38B50446000CFFF7F0FF054670
:1028C400A0B2FFF7ECFF284438BD10B5044603C896
:1028D40002F0BAFCC4E900011046194610BD10B557
:1028E40002F0B2FC029CC4E9002310BD10B51C46E2
:1028F400002302F0A9FC226010BD10B51C46D317BA
:1029040002F052FC226010BD08B5002302F09CFCCA
:1029140008BD08B5D31702F047FC08BD13B504463B
:10292400002201A903F0EEF8019BA34208BF6FF057
:10293400150002B010BD13B50446002201A903F02E
:10294400A5F9019BA34208BF6FF0150002B010BDAA
:102954004870000A08707047008840BA80B2704717
:102964000870000A4870704700887047030A88702E
:10297400000C4B7008707047B0F8013000785BBAF7
:102984009BB243EA00407047030A0870000C4B7086
:10299400887070478278008840EA02407047030AD2
:1029A400C8708B70030C000E4B7008707047006881
:1029B40000BA7047030A08704B70030C000E8B704A
:1029C400C870704700687047030A9371030C537111
:1029D4000B0AD071D170000E93700B0C090E10719C
:1029E4005370117070470168406809BA00BA7047A3
:1029F400030A5370030C93700B0A10701171000ECC
:102A040053710B0C090ED0709371D171704703464A
:102A1400006859687047C1F10F01C9B2884000B21B
:102A240008417047C1F11F01C9B28840084170478D
:102A3400A0FB0101704770B50C46A0FB0201C3F175
:102A4400200601FA06F6A3F12005D84021FA05F57F
:102A540030432843D940C3F1200584B1A4FB023498
:102A6400A5F1200603FA06F6C5F12002AC4023FACC
:102A740002F23443AB401443181841EB040170BD17
:102A84002DE9F0430026A0FB0240A1FB02123419F9
:102A94000D1812189946304631464FF0004E46EB59
:102AA400060792187F4142EAD57224196D414A45BE
:102AB40077F1000313D3C6F1200CA6F120082EFAF7
:102AC40008F80EFA0CFC4CEA080CB2EB09022EFAD8
:102AD40006F867F100074CEA000048EA01010136F4
:102AE400402EDED1BDE8F08300207047931E062BF4
:102AF400F7B507460D46144619D88A4217D8B1FBD4
:102B0400F2F302FB131393B9064622463146684694
:102B140002F01EFD2346721E013B1DF8031002F84D
:102B2400011F002BF8D12644F31BAB42EDD303B0B5
:102B3400F0BD0000174A936943F021039361164BDB
:102B44001A6822F470621A601A6842F400621A6009
:102B5400DA6842F00402DA60A3F5A0539A6822F41A
:102B640070629A609A6842F440729A60D3F80024C2
:102B740042F00402C3F80024D3F80C2442F0040207
:102B8400C3F80C240022054B83F808234FF4807209
:102B94001A607047001002400014014000E100E098
:102BA40010B5064C63695B0706D50122044B1A7005
:102BB400FFF772F80423636110BD00BF00040140F5
:102BC40021190020044B9A689107FCD518739A6860
:102BD400D207FCD5187B704700300140304A936916
:102BE40043F4805343F00D0393612E4B5A6822F053
:102BF400E0625A605A6842F000725A605A6842F0C1
:102C040001025A60D3F8002C03F5406322F47042A9
:102C14001A601A6842F440521A601A6842F4004278
:102C24001A601A6822F470021A601A6842F4401298
:102C34001A601A6842F400021A601A6822F47022B8
:102C44001A601A6842F480221A60A3F580635A68F5
:102C540022F070425A605A6842F040525A604FF46F
:102C640000421A61002203F520531A601A6822F008
:102C740038021A601A6842F004021A601A6842F4B0
:102C840040721A601A6822F003021A605A6842F00D
:102C940040025A601A6842F040021A60704700BF4E
:102CA40000100240000001404FF00042014B1A6145
:102CB400704700BF000801404FF40042014B1A6105
:102CC400704700BF000801407CE7FF207AE738B571
:102CD40004464518AC4200D138BD14F8010BFFF787
:102CE40071FFF7E738B504464518AC4200D138BD4A
:102CF400FF20FFF767FF04F8010BF6E7264B9A69FC
:102D040042F019029A61DA6942F48042DA61A3F569
:102D140082335A6892B25A605A6842F430025A6056
:102D24005A6842F030425A605A6822F070625A601F
:102D34005A6842F000625A60DA6842F48042DA600B
:102D44005A6842F440325A60144A516821F0F00142
:102D54005160516841F0300151604FF48051196164
:102D64004FF40073136100220D4B1A601A6822F0AD
:102D740038021A601A6842F004021A601A6842F4AF
:102D840040721A601A6822F003021A601A6842F04C
:102D940040021A60704700BF00100240001001405A
:102DA40000380040044B9A689107FCD518739A6860
:102DB400D207FCD5187B704700380040012A38B58B
:102DC40014460CBF4FF000724FF080520D460CBFFA
:102DD4000C4B0D4B1A61FFF7E5FF280AFFF7E2FFE2
:102DE400E8B2FFF7DFFF094A93681B06FCD4012C05
:102DF4000BBF4FF400724FF48052024B024B1A6126
:102E040038BD00BF00100140000C014000380040F4
:102E14000022FFF7D3BF01290CBF4FF000724FF01F
:102E2400805238B50CBF0F4B0F4B0C461A61FFF79D
:102E3400B9FF0020FFF7B6FF05460020FFF7B2FFF9
:102E44000A4A93681B06FCD4012C0BBF4FF4007292
:102E54004FF48052034B044B40EA05201A6180B2C0
:102E640038BD00BF00100140000C01400038004094
:102E74000021FFF7D0BF00BF40F618032DE9F04151
:102E8400544D044603FB005393F81528002A56D0EA
:102E9400B3F80018B3F802288A4250D993F814689A
:102EA4004A1C172EA3F8002817D8072E49D8002744
:102EB40070004030C0B240F20C4303FB041135F8FB
:102EC40011803A464146FFF779FF37B9424B1868FB
:102ED40018B100EB4600A0F81A8030233F4E4FF69D
:102EE400FF7C03FB046640F6180303FB0453B3F8AA
:102EF4000028002318463A4F36F802EBBEF1000FC3
:102F040011D0B2FBFEF10EFB112189B251B937F891
:102F1400131089B261451FBF37F81310013189B20C
:102F240027F8131001200133182BE5D188B140F69E
:102F3400180303FB0450B0F80238934236D9BDE8B5
:102F4400F08106F13800A6F108030127C0B2DEB211
:102F5400B1E7244B33F814000028E8D0224B53F88F
:102F6400241029B9214B1B5D172BE0D8012199406E
:102F7400B2FBF0F300FB13239BB2002BD7D1012744
:102F84004FF6FF7C164E07FA03F008420AD036F8D3
:102F9400130080B260451FBF36F81300013080B2C1
:102FA40026F813000133182BEDD1C0E790F816383A
:102FB4006BB1B0F80438A0F80238D0F80C38C0F877
:102FC4000838002380F81638C0F81038B7E780F8BE
:102FD4001538B4E7CC1E002050190020CC1900206D
:102FE400801E0020501E002054190020B419002017
:102FF400D8B939B91A4B12B140221A6170474FF44B
:103004008002FAE7012906D1154B0AB18022F4E7C0
:103014004FF40002F1E70229F0D1114B12B14FF441
:103024008072EAE74FF08072E7E731B90D4B0AB1DD
:103034000122E2E74FF48032DFE7012906D1094B90
:103044000AB10222D9E74FF40032D6E70229D5D1DA
:10305400044B0AB10422D0E74FF48022CDE700BF2D
:10306400001001400008014008B52C4B10219A695A
:1030740042F014029A61DA6942F00102DA61A3F5BE
:1030840080331A6822F07F421A601A6842F04C5268
:103094001A605A6822F00F025A605A6842F003021A
:1030A4005A601F4A136823F47F6323F00F031360ED
:1030B400136843F44C7343F0030313604FF08043ED
:1030C40040F2CF229A620922DA62DA6842F00102FF
:1030D400DA60144A82F81C134FF0805111601A68A8
:1030E40042F001021A60002211461046FFF780FFE9
:1030F4000A460121FFF77CFF02460221FFF778FF11
:10310400014602460120FFF773FF0A460146FFF716
:103114006FFFBDE808400022022169E70010024069
:103124000008014000E100E001282DE9F843804651
:103134000F4691461E4668D8022966D8104634497F
:1031440001F0F4FF334D4FEA480468B100224444CF
:10315400E31945F823202C4405EB83039A613C448E
:103164001A6384F8482021E048462B4901F0F2FF15
:1031740008B1DFF8A4904946284801F0E3FE4FF077
:103184007C5101F023FD01F0EFFF012838BF01203D
:103194008EB932464444E3192C4445F823603C4438
:1031A40005EB830398611E6384F848603946404602
:1031B400BDE8F8431CE7632E0CD900224444E3190C
:1031C40045F823002C4405EB83039A613C441A63BD
:1031D4000122C6E74643632E8ABF64220126B6FB5A
:1031E400F2F6801B01284FF0000238BF012044444E
:1031F400E31945F8236005EB830398611A63012200
:1032040025443D4485F84820D0E7BDE8F88300BF55
:10321400ACC52737A4E1002000409C4500401C4673
:103224003223FFF781BF0A4601460020FFF7F8BFAB
:10323400FFF7F9BFFFF7F7BFF8B54FF080431A69FE
:10324400D20754D5002007461A69304D22F00102F6
:103254001A610024460033181A1955F822E005EBC8
:103264008202D2F818C0BEF1000F1CD0BCF1000FCE
:1032740019D0116B2B4401311163234493F8481086
:10328400002908BFE646116B71450CD3176393F808
:103294004820E1B2B2FA82F2520983F8482093F846
:1032A4004820FFF7A5FE0134032CD4D108B901202E
:1032B400CFE700242646164D164F95F815388BB1E6
:1032C40095F81738012B13D1D5F81038D5F80828FC
:1032D40001339342C5F8103804D3C5F81068E0B23E
:1032E400FFF7CAFD0134182C05F61805E5D1F8BD21
:1032F400032BF7D137F814309BB2002BF2D037F8F8
:103304001430013B9BB227F81430E8E7A4E1002015
:10331400CC1E0020801E00200A4B9A6942F0040251
:103324009A61DA6942F00052DA61074A136823F4B9
:103334007F031360A2F51442136843F00113136072
:10334400704700BF0010024000080140024BC0F368
:103354000B009860704700BF00740040024BC0F33C
:103364000B005861704700BF00740040034B1A689B
:103374001206FCD5C0B25860704700BF0038014047
:10338400034B1A689206FCD55868C0B2704700BF58
:1033940000380140014B1860704700BFF4E1002081
:1033A400214A0020936943F004039361936943F035
:1033B400010393611D4B596841F03001596059680C
:1033C40041F080015960596821F040015960596801
:1033D40021F440715960596841F480615960596819
:1033E40021F40061596012494B6823F004034B60D7
:1033F400936943F4804393610E4BDA6842F0080208
:10340400DA60DA6842F00402DA60DA6842F0200234
:10341400DA6040F271229A60DA6842F40052DA60AB
:103424002022054B5A6070470010024000080140FA
:10343400000001400038014000E100E0054B1A683B
:10344400920605D55868044B1B680BB1C0B21847E7
:10345400704700BF00380140F4E1002008B5411E68
:1034640011F8010F00B908BDFFF780FFF8E770B548
:103474000446164B86B001AA03F1100615461868D7
:103484005968083303C5B3422A46F7D11B78302064
:103494002B70FFF76BFF7820FFF768FF06AB03EB99
:1034A400141313F8140C04F00F04FFF75FFF04F176
:1034B40018030DEB030414F8140CFFF757FF0A204C
:1034C40006B0BDE87040FFF751BF00BFF1830008AC
:1034D40007282DE9F84306460D461746994668D84D
:1034E40044010834204600F043FE00F003000128A4
:1034F40003D06FF00400BDE8F88304F5407840463B
:1035040000F036FE132857D12A786B7803EB022398
:10351400AA7802EB0323EA78013A02EB032203328E
:103524004DD8002F4ED0390A04F5805000F04EFEDD
:10353400F9B204F5885000F049FEB9F1100FD8D063
:10354400204600F015FE0928D3D0294604F5406032
:10355400042204F5807500F0A5FE0421284600F03D
:1035640035FE284600F004FE0028FAD1174B1B88CC
:1035740043FA06F6F207BED404F50074404600F0A0
:10358400F7FD172801D10120B5E7204600F0F0FD32
:10359400030706D52046082100F018FE6FF00C0042
:1035A400A9E7404600F0E4FD0028E7D16FF00300EE
:1035B400A1E74FF0FF309EE76FF002009BE76FF04A
:1035C4000B0098E76FF00A0095E700BFF8E10020D0
:1035D4002DE9F84F072807468A4691461E46BDF84E
:1035E40028409DF82CB000F2C580450108352846D6
:1035F40000F0BEFD00F00F03042B05D810F00E0FF1
:1036040004D16FF004000FE00B2BFAD1284600F030
:10361400AFFD0428804627D0BBF1100FF1D0BBF1D9
:10362400040F03D06FF00B00BDE8F88FA0F10A037C
:10363400DBB2012BE5D95A46314605F5406008F066
:10364400030800F02FFEB8F1020F0DD114B96FF08A
:103654000A00E9E7210A05F5805000F0B7FDE1B260
:1036640005F5885000F0B2FDB9F1000F00F0858037
:103674003378727802EB0322B37803EB0222F378F7
:1036840003EB0223002B3AD0002C3ED005F5407802
:10369400404600F06DFD42283DD10422314605F537
:1036A400406000F0FFFD210A05F5805000F08EFD1A
:1036B400E1B205F5885000F089FD05F5F85000F0F9
:1036C40057FD800280B2484528BF48464FF00109A3
:1036D4000446DFF8B4B009FA07F9384600F01CFED6
:1036E4000646404600F044FD002849D0BBF80030AF
:1036F40013EA090F16D0B44216D9002094E72846DD
:1037040000F036FD4007BFD48CE7284600F030FDBA
:103714004107BBD49BE700F0EF002228BDD06FF037
:10372400060081E7B442D8D851463846224605F50A
:10373400807600F033FE2021304600F047FD30460D
:1037440000F016FD0028FAD105F50075284600F0B2
:103754000FFDC20605D52846102100F037FD20468E
:1037640062E70307F2D52846082100F02FFD6FF029
:103774000C0059E74FF0FF3056E76FF00D0053E7A8
:103784006FF0030050E700BFF8E100200728F8B508
:1037940005462CD8470107F1080407F58477102162
:1037A400384600F013FD384600F0E2FC06460028D7
:1037B400F9D11F2104F5007000F008FD0123AB408E
:1037C400DB430C4A1BB2118804F540741940118084
:1037D40051880B40538002EB45032A449E801675A2
:1037E400204600F0C5FC0028FAD10120F8BD4FF0B6
:1037F400FF30FBE7F8E1002007282DE9F3410446F8
:10380400884617461D4600F2828001F00F03013BF3
:103814000D2B7FD8DFE803F0071515157E7E7E7E1D
:103824007E15157E7E1504224FF470600DEB0201A7
:1038340000F0FEFC019B23B96FF0020002B0BDE86A
:10384400F081680756D42DB1B8F1010F4FD0B8F10B
:10385400020F52D020466601FFF798FF083625F084
:103864000F01304641EA080100F0B0FC6FB94FF691
:10387400F0712A4A17887B1C9BB28B4205BF4FF418
:1038840040434FF6EF7713801380390A06F58060C2
:1038940000F09CFCF9B206F5A06006F5807700F014
:1038A40095FC0121384600F091FC384600F060FC9C
:1038B4000028FAD10123A340DB43194A1BB2118823
:1038C40005F001051940A5400D43518815800B40B2
:1038D400538002EB440322449880107506F5407629
:1038E400304600F045FC0028FAD060B2A6E715F097
:1038F400210FAFD16FF00500A0E7A9066BB201D587
:10390400002BF7DAEA06A5D5002BA3DBF2E74FF08C
:10391400FF3093E76FF0040090E700BF4C000020F5
:10392400F8E100202DE9F04F072805468B46924622
:10393400994687B000F2038147010837384600F002
:1039440017FC00F00F010429034605D810F00E0FF0
:1039540004D16FF00400B6E00B29FAD1BAF1000FDC
:1039640000F0F0807A4E4FEA450806EB450189885D
:1039740000297FD1012107F54072A9400192284610
:10398400CDE9021300F0E9FC0446019800F0F0FBD5
:10399400002800F0DA8030880299039B084202D0A4
:1039A4001CB920468FE0002CE9D003F00703032B59
:1039B40007F5807700F08A80042B5DD0022B40F05D
:1039C400B68006EB08039B888BBB284604A9082213
:1039D40000F011FD4021384600F0F8FB384600F0B5
:1039E400C7FB0028FAD19DF810309DF8142089F8FF
:1039F40000309DF811309DF8161089F801309DF8BB
:103A0400123089F802309DF8133089F803309DF89C
:103A1400153003EB0223109A13809DF8172006EB50
:103A2400080302EB01229A80802273191A7506EBAF
:103A340008039C88544528BF5446594622462846C4
:103A440000F0D9FC4021384600F0C0FB384600F0B5
:103A54008FFB0028FAD1B044B8F804301B1B9BB28A
:103A6400A8F804301BB17319187D40F001003544E7
:103A7400287596E7002498E706EB08039B88002B3B
:103A8400D5D1284604A9022200F0B5FC40213846CD
:103A940000F09CFB384600F06BFB0028FAD19DF83F
:103AA40011309DF81020023B03EB02239BB206EB7E
:103AB4000802938040F2EA529342B5D92846FFF7B0
:103AC40065FE6FF47A7007B0BDE8F08F06EB08036B
:103AD4009B88002BB6D1284604A9062200F08BFC53
:103AE4004021384600F072FB384600F041FB0028C4
:103AF400FAD19DF814209DF815409DF8103004EB80
:103B04000224802289F800309DF81130A4B289F88B
:103B140001309DF8123089F802309DF8133089F88D
:103B2400033006EB08039C8073191A7582E721465B
:103B3400284600F08DFC06EB08039C8082E74FF0DA
:103B4400FF30C0E76FF00D00BDE76FF00300BAE788
:103B5400F8E10020072870B5054627D84401083449
:103B6400204600F005FB00F00300012821D104F5F4
:103B74004076304600F0FCFA13281DD104F5807419
:103B84000221204600F022FB204600F0F1FA002832
:103B9400FAD1304600F0ECFA142801D1012004E0F7
:103BA4002846FFF7F3FD6FF0030070BD4FF0FF30C0
:103BB400FBE76FF00400F8E76FF00200F5E7042379
:103BC40086E485E40728F8B5054639D84401083465
:103BD400204600F0CDFA00F00300012833D104F5AB
:103BE4004076304600F0C4FA08B90120F8BD04F567
:103BF40080770821384600F0E9FA384600F0B8FA30
:103C04000028FAD10122114B02FA05F15A8822EA5E
:103C140001025A801B882B41DA07E7D404F50074AB
:103C2400304600F0A5FA0028DFD0204600F0A0FAC4
:103C34000307F5D52846FFF7A9FD6FF00C00D5E77B
:103C44004FF0FF30D2E76FF00400CFE7F8E1002037
:103C540007282DE9F84F05468A46144600F29C8051
:103C640046010836304600F083FA00F00F000128C0
:103C740040F09580002C00F0958006F54079484688
:103C840000F076FA172804D01C2802D06FF0060042
:103C940037E0464F7B882B41DA0711D506F50078CB
:103CA400404600F065FAC30628D51021404600F0CE
:103CB4008DFA012303FA05F27B8823EA02037B8051
:103CC40006F5F85000F054FA800280B24FF0010873
:103CD400844228BF044608FA05F8284600F01CFB75
:103CE4008346484600F044FA172812D01C2810D006
:103CF4000028CBD12846FFF749FDC7E7000702D4C7
:103D04000020BDE8F88F2846FFF740FD6FF00C0057
:103D1400F7E73B8813EA080F27D05C45F0D85146F3
:103D24002246284600F03AFB7B882B41D9070AD566
:103D340006F5007A504600F01BFAC30618D5102188
:103D4400504600F043FA06F580762021304600F014
:103D54003DFA304600F00CFA0028FAD17B88204660
:103D640048EA0308A7F80280CBE75C45B5D8D6E754
:103D7400484600F0FDF9172809D01C2807D0002870
:103D8400B8D0504600F0F4F90207B3D47EE73B887C
:103D940013EA080FCED0B3E74FF0FF30B1E76FF06E
:103DA4000400AEE76FF00D00ABE700BFF8E10020C0
:103DB40007282DE9F74F83468846174656D845010C
:103DC4000835284600F0D4F900F00F06012E50D132
:103DD400002F51D005F5F05000F0CAF906FA0BF6A1
:103DE400009005F5407905F5F85A584600F0B5FA03
:103DF4000446484600F0BCF9172815D01C280BD1FE
:103E0400C4B9584600F088FA0190504600F0B0F961
:103E14000199B1EB802F07D15846FFF7B7FC6FF03B
:103E2400060003B0BDE8F08F164B1988314226D145
:103E3400002CDAD0009B4146980280B2874228BF0A
:103E44000746A74228BF2746BFB258463A4605F55B
:103E5400807500F0D0FA4021284600F0B7F92846D2
:103E640000F086F90028FAD13846DAE74FF0FF303F
:103E7400D7E76FF00400D4E76FF00D00D1E700201E
:103E8400CFE700BFF8E1002013B504240194BDF886
:103E940010400094FFF79CFB02B010BD30B4BDF895
:103EA40008409DF80C50CDE9024530BCFFF790BBAB
:103EB40038E537E5072810B50B4614464FD8117876
:103EC400092B4FD8DFE803F0051A222B2F374E4E6B
:103ED4003F46012907D1254B01FA00F01A88104307
:103EE4001880012010BD00293CD101211F4A01FA8C
:103EF40000F0138823EA00001080F2E71B4B1B88B4
:103F040043FA00F000F001002070EAE7400100F5F8
:103F1400F850083000F02CF980022080E1E74001DD
:103F240000F5F050F5E71F291CD8400100F5027098
:103F340000F04CF9D5E7400100F5027000F018F9E3
:103F440000F01F00E0E71F290CD8400100F53050B5
:103F54000830EDE7400100F530500830EEE74FF04F
:103F6400FF30BFE76FF00900BCE700BFF8E10020B5
:103F7400072870B5154671D80139062971D8DFE8CC
:103F840001F0040C111E27345F004001117800F584
:103F9400B050083000F01AF918E04001117800F52B
:103FA400A850F6E71188400100F10804090A04F555
:103FB400905000F00BF9297804F59850EAE7400195
:103FC4000422294600F6084000F06CF9012018E0AC
:103FD4001188400100F10804090A04F5805000F03A
:103FE400F5F8297804F58850D4E7400100F1080475
:103FF400204600F0BDF800F00300012802D06FF065
:10400400040070BD04F53C5000F0B2F860BB04F548
:1040140080752221284600F0D9F804F5007428465A
:1040240000F0A6F80028D1D0204600F0A1F803073C
:10403400F5D52046082100F0C9F86FF00C00E0E740
:10404400400100F10804204600F092F800F0030655
:10405400012ED4D1297804F53C509BE74FF0FF3072
:10406400CFE76FF00900CCE76FF00100C9E707283C
:1040740070B50446164673D80E2974D8DFE801F0EB
:104084000811181C2B33733D4E5B51737355650037
:104094004001083000F06CF820F00F00307001206F
:1040A40036E0400100F5B050083000F061F8F5E763
:1040B400400100F5A850F7E74401083404F5905096
:1040C40000F056F8054604F5985000F051F800EB5E
:1040D40005203080E3E740010422314600F6084021
:1040E40000F0A6F8DBE74401083404F5805000F042
:1040F4003FF8054604F58850E7E7440108342046B4
:1041040000F036F800F00305012D02D06FF0040032
:1041140070BD04F53C5000F02BF8DAE700F0FCF831
:10412400D7E7400100F54270BFE74001083000F0D6
:104134001FF8C30703D5204600F00FF9C9E70B4861
:1041440000EB440083883380A9E74001083000F085
:104154000FF80128DAD005482044037D33709EE728
:104164004FF0FF30D4E76FF00100D1E7F8E1002011
:1041740073B50546144CC5F30726E368984763698D
:104184009847636AC5F30740EDB20BB1A36A8BB9D4
:10419400236A98473046236A98472846236A9847F3
:1041A400E36998470546A3699847236998472846D1
:1041B40002B070BD8DF8040003218DF805608DF800
:1041C400065001A89847EBE750000020F7B50546D4
:1041D400164C0E46E368984763699847A36A45F00E
:1041E4000407C5F30740FFB2C5F3072583B9236A63
:1041F40098472846236A98473846236A98473046A2
:10420400236A9847A36998472369984703B0F0BD88
:1042140004218DF804008DF805508DF806708DF892
:1042240007600DEB01009847ECE700BF5000002049
:104234002DE9F34105461A4C0E46E36817469847A4
:1042440063699847636AC5F30740C5F30728EDB26D
:104254000BB1A36AB3B9236A98474046236A9847C7
:104264002846236A98473744B74206D1A36998473A
:104274002369984702B0BDE8F081E369984706F8DE
:10428400010BF1E78DF80400032101A88DF80580E6
:104294008DF80650984739463046636A9847E5E7F3
:1042A400500000202DE9F34105461A4C0F46E368FF
:1042B4009046984763699847A36A45F00406C5F396
:1042C4000740F6B2C5F30725B3B9236A98472846D1
:1042D400236A98473046236A9847B844B84506D1BC
:1042E400A36998472369984702B0BDE8F081236A1F
:1042F40017F8010B9847F1E78DF80400032101A892
:104304008DF805508DF80660984741463846A36AF3
:104314009847E5E750000020F8B500244601083628
:1043240006F5005706F504563846FFF721FF050247
:104334003046FFF71DFFADB20544ADB24DB138466E
:10434400FFF716FF04023046FFF712FFA4B204443D
:10435400A4B2AC42E8D12046F8BDF8B50024460129
:10436400083606F5185706F51C563846FFF700FFC1
:1043740005023046FFF7FCFEADB20544ADB24DB1C7
:104384003846FFF7F5FE04023046FFF7F1FEA4B20B
:104394000444A4B2AC42E8D12046F8BD2DE9F84368
:1043A400894614462AB385006F1CFF0007F5105890
:1043B4004046FFF7DDFE07F5145706463846FFF77B
:1043C400D7FE00EB0626B6B2023530022246494635
:1043D40000EBC500FFF766FFA11940468CB2C1F39C
:1043E4000721FFF7F3FE3846E1B2BDE8F843FFF7D3
:1043F400EDBEBDE8F8832DE9F843894614462AB397
:1044040085006F1CFF0007F520584046FFF7B0FEFB
:1044140007F5245706463846FFF7AAFE00EB0626A2
:10442400B6B2033530022246494600EBC500FFF719
:10443400FFFEA11940468CB2C1F30721FFF7C6FE67
:104444003846E1B2BDE8F843FFF7C0BEBDE8F883E3
:10445400F8B54401083404F5205738460D46FFF7F3
:1044640087FE04F5245406462046FFF781FE2918EA
:1044740001EB062138468DB2C1F30721FFF7A6FEF2
:104484002046E9B2BDE8F840FFF7A0BE70470078C7
:10449400704701707047012B2DE9F84328BF0123B1
:1044A4000446884616461F460025DFF82090ABB226
:1044B400B34201DBBDE8F8832046D9F81C309847A5
:1044C4003C4408F805000135F1E700BF5000002026
:1044D400012B2DE9F84328BF0123044688461646DC
:1044E4001F460025DFF81C90ABB2B34201DBBDE8E8
:1044F400F883204618F80510D9F8203098473C4432
:104504000135F1E75000002000207047704770B576
:104514000446054E4518AC4200D170BDF369984776
:1045240004F8010BF7E700BF5000002070B5044603
:10453400044E4518AC4200D170BD336A14F8010B27
:104544009847F7E75000002070477047704770475E
:104554007047054B00B121B9044ADA60044A1A6174
:104564007047C3E9030170475000002091440008DC
:1045740051450008054B00B121B9054A5A61054A65
:104584009A617047C3E90501704700BF50000020DD
:104594005345000855450008074B1A88D20500D436
:1045A400FEE700B121B9054ADA61054A1A6270478B
:1045B400C3E90701704700BF50000020934400087E
:1045C40097440008074B1A88D20500D4FEE700B1CF
:1045D40021B9054A5A62054A9A627047C3E909013A
:1045E400704700BF500000209B440008D5440008D9
:1045F400074B1A88920500D4FEE700B121B9054A99
:10460400DA61054A1A627047C3E90701704700BFBF
:10461400500000200D45000811450008074B1A887A
:10462400920500D4FEE700B121B9054A5A62054A51
:104634009A627047C3E90901704700BF5000002027
:104644001345000831450008074B1A8802F401722B
:1046540002B9FEE700B121B9044ADA61044A1A62D8
:104664007047C3E907017047500000204D4500081A
:104674004F4500087FB5062204A94FF41060FFF7E8
:10468400D7FD04224FF480700DEB0201FFF7D0FD3B
:1046940002A904224FF4A060FFF7CAFD042203A973
:1046A4004FF47060FFF7C4FD80210020FFF78EFDFA
:1046B4000020FFF75DFD04A906224FF41060FFF708
:1046C400F1FD04224FF480700DEB0201FFF7EAFDC7
:1046D40002A904224FF4A060FFF7E4FD04224FF482
:1046E400706003A9FFF7DEFD07B05DF804FBF8B5C1
:1046F40005460C46FFF7BEFFBDB16E1E32460023D1
:10470400073512F8011F0B445BB2102B29DCAA42B7
:10471400F7D141F6087542F20807284616F8011F3A
:104724002035FFF753FDBD42F7D10CB90020F8BD89
:10473400651E2A460023073412F8011F0B445BB29E
:10474400102B0EDC9442F7D141F6086441F608764A
:10475400204615F8011F2034FFF738FDB442F7D185
:10476400E4E74FF0FF30E2E738B500F0F001050A66
:104774004FF4A850FFF72AFD002445FA04F3DB07A1
:1047840005D560011F2100F50270FFF71FFD0134FC
:10479400082CF2D138BD10B54FF4A850FFF7E8FC4F
:1047A40004464FF4B850FFF7E3FC04F0F00404EBC4
:1047B4000024A0B210BD10B50446C1B24FF4B050ED
:1047C400FFF704FD210A4FF4C050BDE81040FFF785
:1047D400FDBC10B54FF4B050FFF7CAFC04464FF4CB
:1047E400C050FFF7C5FC04EB002080B210BD08B533
:1047F4004FF43850FFF7BCFC00F0010008BD08B5C9
:104804004FF43850FFF7B4FC00F03800A0F1300347
:104814005842584108BD08B54FF43850FFF7A8FC7A
:1048240000F07F014FF43850FFF7D0FC4FF43850BC
:10483400FFF79EFCBDE8084060F07F01C9B24FF469
:104844003850FFF7C3BC08B50378012B43780CBF7D
:1048540040210021012B09D141F038014FF4385097
:10486400FFF7B4FCBDE80840FFF7D5BFC2788378F2
:10487400012A06D1012B0CBF41F0180141F00801B7
:10488400ECE7012B08BF41F01001E7E710B504463F
:104894004FF43850FFF76CFCC0F38013237000F022
:1048A4003803202B01D0382B1DD101226270A3F1D3
:1048B4001002D2B2102A18D8012101FA02F202F031
:1048C400013222F0807282B1A170083BDBB2182B56
:1048D4000ED8012202FA03F303F0013323F48073A8
:1048E40033B1E27010BD0022E0E70022A270ECE7D1
:1048F4000023E370F6E710B504464FF43850FFF791
:1049040037FCC0F38003E370C0F34003A37010BD11
:1049140010B504464FF43850FFF72AFC43061DD562
:1049240000F0C701012C0CBF41F0300141F0380107
:104934004FF43850FFF74AFCFFF76DFF4FF438503F
:10494400FFF716FC012C06D110F0300F0CBF4FF00E
:10495400FF30002010BD10F0380FF7E74FF0FF30A4
:10496400F8E7033838B50C4614286BD8DFE800F0B4
:104974000B0F19151D2124306A6A3C6A6A6A4C4F70
:1049840053575B606700FFF775FE00203BE020464D
:10499400BDE838400831FFF7AABE0888FFF7E4FEF7
:1049A400F3E7FFF7F8FE2080EFE70888FFF703FF3F
:1049B400EBE7FFF70EFFF6E709884FF49850090A72
:1049C400FFF704FC4FF4A0502178FFF7FFFBDCE76E
:1049D4004FF49850FFF7CCFB05464FF4A050FFF777
:1049E400C7FB00EB0520DEE70020184B9A780A701D
:1049F400DA784A701A798A705A79CA709A790A717F
:104A0400DB7988714B7138BDFFF705FFBDE70846B8
:104A1400FFF719FFB9E70846FFF738FFB5E708467F
:104A2400FFF769FFB1E70878BDE83840FFF770BFCA
:104A3400FFF7E5FEC0B2FF2804D02070A5E7FFF71A
:104A4400D6FEF7E74FF0FF30DDE700BF500000204F
:104A540010B50446014606224FF41060FFF722FC0D
:104A640004224FF4807004F10E01FFF71BFC0422B2
:104A74004FF4A06004F10A01FFF714FC04224FF480
:104A84007060A11DFFF70EFC054BA27C1A70E27C3E
:104A94005A70227D9A70627DDA70A27D1A7110BDFF
:104AA40014E2002010B50446014606224FF41060BB
:104AB400FFF7BEFB04224FF4807004F10E01FFF7F0
:104AC400B7FB04224FF4A06004F10A01FFF7B0FB26
:104AD40004224FF47060A11DFFF7AAFB054B1A785E
:104AE400A2745A78E2749A782275DA781B7962751E
:104AF400A37510BD14E2002038B530F03A05044621
:104B04000AD12846FFF734FB44EA0001C9B228461B
:104B1400FFF75CFB284638BD4FF0FF30FBE7002071
:104B2400FFF726BB10B5044601784FF4D850FFF7C1
:104B34004DFB61884FF4C850090AFFF747FBA17881
:104B44004FF4D050BDE81040FFF740BB38B50446E1
:104B54004FF4D850FFF70CFB20704FF4C850FFF708
:104B640007FB05464FF4D050FFF702FB00EB05208E
:104B7400608038BD10B50C4605281ED8DFE800F06B
:104B840003080C1115190846FFF762FF002010BD39
:104B94000846FFF787FFF9E70878BDE81040FFF7FC
:104BA400ABBFFFF7BCFF2070F0E70846FFF7BAFF82
:104BB400ECE70846FFF7CAFFE8E74FF0FF30E6E707
:104BC40080F0004002E000BF81F0004142001FBFBE
:104BD4005FEA410392EA030F7FEA226C7FEA236CC7
:104BE4006AD04FEA1262D2EB1363C1BFD2184140BC
:104BF40048404140B8BF5B42192B88BF704710F052
:104C0400004F40F4000020F07F4018BF404211F0F4
:104C1400004F41F4000121F07F4118BF494292EA5C
:104C2400030F3FD0A2F1010241FA03FC10EB0C0088
:104C3400C3F1200301FA03F100F0004302D5494215
:104C440060EB4000B0F5000F13D3B0F1807F06D3C2
:104C540040084FEA310102F10102FE2A51D2B1F1BA
:104C6400004F40EBC25008BF20F0010040EA0300AF
:104C74007047490040EB0000013A28BFB0F5000F2F
:104C8400EDD2B0FA80FCACF1080CB2EB0C0200FAE5
:104C94000CF0AABF00EBC25052421843BCBFD04034
:104CA4001843704792F0000F81F4000106BF80F4AE
:104CB40000000132013BB5E74FEA41037FEA226C71
:104CC40018BF7FEA236C21D092EA030F04D092F03C
:104CD400000F08BF0846704790EA010F1CBF002070
:104CE400704712F07F4F04D1400028BF40F00040CD
:104CF400704712F100723CBF00F50000704700F0ED
:104D0400004343F0FE4040F4000070477FEA226213
:104D140016BF08467FEA23630146420206BF5FEAE4
:104D2400412390EA010F40F4800070474FF00003E4
:104D340004E000BF10F0004348BF40425FEA000CAB
:104D440008BF704743F0964301464FF000001CE053
:104D540050EA010208BF70474FF000030AE000BFA9
:104D640050EA010208BF704711F0004302D54042E7
:104D740061EB41015FEA010C02BF84460146002059
:104D840043F0B64308BFA3F18053A3F50003BCFA74
:104D94008CF2083AA3EBC25310DB01FA02FC634421
:104DA40000FA02FCC2F12002BCF1004F20FA02F228
:104DB40043EB020008BF20F00100704702F120021B
:104DC40001FA02FCC2F1200250EA4C0021FA02F27C
:104DD40043EB020008BF20EADC7070474FF0FF0C81
:104DE4001CEAD0521EBF1CEAD15392EA0C0F93EA7C
:104DF4000C0F6FD01A4480EA010C400218BF5FEA1E
:104E040041211ED04FF0006343EA501043EA511190
:104E1400A0FB01310CF00040B1F5000F3EBF49008A
:104E240041EAD3715B0040EA010062F17F02FD2A8E
:104E34001DD8B3F1004F40EBC25008BF20F0010071
:104E4400704790F0000F0CF0004C08BF49024CEA88
:104E5400502040EA51207F3AC2BFD2F1FF0340EA1A
:104E6400C250704740F400004FF00003013A5DDC8B
:104E740012F1190FDCBF00F000407047C2F10002CC
:104E8400410021FA02F1C2F1200200FA02FC5FEAB9
:104E9400310040F1000053EA4C0308BF20EADC7003
:104EA400704792F0000F00F0004C02BF400010F475
:104EB400000F013AF9D040EA0C0093F0000F01F022
:104EC400004C02BF490011F4000F013BF9D041EA44
:104ED4000C018FE70CEAD15392EA0C0F18BF93EA46
:104EE4000C0F0AD030F0004C18BF31F0004CD8D170
:104EF40080EA010000F00040704790F0000F17BFF7
:104F040090F0004F084691F0000F91F0004F14D03C
:104F140092EA0C0F01D142020FD193EA0C0F03D194
:104F24004B0218BF084608D180EA010000F0004097
:104F340040F0FE4040F40000704740F0FE4040F472
:104F4400400070474FF0FF0C1CEAD0521EBF1CEA11
:104F5400D15392EA0C0F93EA0C0F69D0A2EB03022F
:104F640080EA010C49024FEA402037D04FF08053C9
:104F740043EA111143EA10130CF000408B4238BF8E
:104F84005B0042F17D024FF4000C8B4224BF5B1A9C
:104F940040EA0C00B3EB510F24BFA3EB510340EAEA
:104FA4005C00B3EB910F24BFA3EB910340EA9C0098
:104FB400B3EBD10F24BFA3EBD10340EADC001B0108
:104FC40018BF5FEA1C1CE0D1FD2A3FF650AF8B42AC
:104FD40040EBC25008BF20F0010070470CF0004CB9
:104FE4004CEA50207F32C2BFD2F1FF0340EAC250E4
:104FF400704740F400004FF00003013A37E792F0A5
:10500400000F00F0004C02BF400010F4000F013A02
:10501400F9D040EA0C0093F0000F01F0004C02BFFD
:10502400490011F4000F013BF9D041EA0C0195E766
:105034000CEAD15392EA0C0F08D142027FF47DAFFF
:1050440093EA0C0F7FF470AF084676E793EA0C0FEF
:1050540004D14B023FF44CAF08466EE730F0004CED
:1050640018BF31F0004CCAD130F000427FF45CAF7D
:1050740031F000437FF43CAF5FE700BF4FF0FF3CEB
:1050840006E000BF4FF0010C02E000BF4FF0010C3E
:105094004DF804CD4FEA40024FEA41037FEA226C07
:1050A40018BF7FEA236C11D001B052EA530C18BF29
:1050B40090EA010F58BFB2EB030088BFC81738BF8E
:1050C4006FEAE17018BF40F0010070477FEA226C7C
:1050D40002D15FEA402C05D17FEA236CE4D15FEA78
:1050E400412CE1D05DF8040B704700BF84460846AC
:1050F4006146FFE70FB5FFF7C9FF002848BF10F16D
:10510400000F0FBD4DF808EDFFF7F4FF0CBF0120B1
:1051140000205DF808FB00BF4DF808EDFFF7EAFF3B
:1051240034BF012000205DF808FB00BF4DF808EDF6
:10513400FFF7E0FF94BF012000205DF808FB00BFEB
:105144004DF808EDFFF7D2FF94BF012000205DF871
:1051540008FB00BF4DF808EDFFF7C8FF34BF01207E
:1051640000205DF808FB00BF42000ED2B2F1FE4FF2
:105174000BD34FF09E03B3EB126209D44FEA002322
:1051840043F0004323FA02F070474FF000007047E9
:1051940012F1610F01D1420202D14FF0FF3070478A
:1051A4004FF00000704700BF7BB972B90029BEBF41
:1051B40000204FF0004106E008BF00281CBF6FF03C
:1051C40000414FF0FF3000F0C1B9ADF1080C6DE9BA
:1051D40004CE002909DB002B1ADB00F04DF8DDF8C2
:1051E40004E0DDE9022304B07047404261EB410171
:1051F400002B1BDB00F040F8DDF804E0DDE90223BE
:1052040004B0404261EB4101524263EB43037047F7
:10521400524263EB430300F02FF8DDF804E0DDE9CC
:10522400022304B0404261EB41017047524263EBF8
:10523400430300F021F8DDF804E0DDE9022304B0C3
:10524400524263EB4303704753B94AB9002908BF7C
:1052540000281CBF4FF0FF314FF0FF3000F076B94B
:10526400ADF1080C6DE904CE00F006F8DDF804E0B9
:10527400DDE9022304B070472DE9F047089E0D468E
:1052840004468846002B4DD18A42944668D9B2FA26
:1052940082F252B101FA02F3C2F1200120FA01F1C3
:1052A4000CFA02FC41EA030894404FEA1C41B8FBA3
:1052B400F1F71FFA8CFE01FB178807FB0EF0230C95
:1052C40043EA084398420AD91CEB030307F1FF356C
:1052D40080F01E81984240F21B81023F63441B1AF6
:1052E400B3FBF1F001FB103300FB0EFEA4B244EA61
:1052F4000344A6450AD91CEB040400F1FF3380F0F3
:105304000981A64540F20681644402380021A4EBD9
:105314000E0440EA07401EB10023D440C6E900430E
:10532400BDE8F0878B4208D9002E00F0EE80002102
:10533400C6E900050846BDE8F087B3FA83F1002901
:105344004AD1AB4202D3824200F2FC80841A65EB5C
:10535400030301209846002EE2D0C6E90048DFE7A7
:1053640002B9FFDEB2FA82F2002A40F09180A1EB8A
:105374000C0001214FEA1C471FFA8CFEB0FBF7F327
:1053840007FB1300250C45EA00450EFB03F0A84279
:1053940008D91CEB050503F1FF3802D2A84200F23C
:1053A400CE8043462D1AB5FBF7F007FB10550EFBD4
:1053B40000FEA4B244EA0544A64508D91CEB040443
:1053C40000F1FF3502D2A64500F2B6802846A4EBD0
:1053D4000E0440EA03409EE7C1F120078B4022FA05
:1053E40007FC4CEA030C25FA07FA4FEA1C49BAFBFE
:1053F400F9F820FA07F309FB18AA8D401FFA8CFE6E
:105404001D4300FA01F308FB0EF02C0C44EA0A4495
:10541400A04202FA01F20BD91CEB040408F1FF3A92
:1054240080F08880A04240F28580A8F1020864449C
:10543400241AB4FBF9F009FB104400FB0EFEADB2D4
:1054440045EA0444A64508D91CEB040400F1FF35E1
:105454006CD2A6456AD90238644440EA0840A0FBED
:105464000295A4EB0E04AC42C846AE4656D353D0C4
:10547400002E69D0B3EB080264EB0E0422FA01F3A8
:1054840004FA07F71F43CC40C6E90074002147E73C
:105494000CFA02FCC2F1200125FA01F34FEA1C4781
:1054A40020FA01F195400D43B3FBF7F107FB1133EB
:1054B4001FFA8CFE280C40EA034001FB0EF38342E2
:1054C40004FA02F408D91CEB000001F1FF382FD2D2
:1054D40083422DD902396044C01AB0FBF7F307FBAD
:1054E4001300ADB245EA004503FB0EF0A84208D90B
:1054F4001CEB050503F1FF3816D2A84214D9023B70
:105504006544281A43EA014138E73146304607E743
:105514002F46E4E61846F9E64B45A9D2B9EB020852
:1055240065EB0C0E0138A3E74346EAE7284694E707
:105534004146D1E7D0467BE76444023847E7023B63
:1055440065442FE7084606E73146E9E6704700BFA1
:10555400844641EA000313F0030349D1403A23D3BC
:105564000B6803604B6843608B688360CB68C360DF
:105574000B6903614B6943618B698361CB69C361C7
:105584000B6A03624B6A43628B6A8362CB6AC362AF
:105594000B6B03634B6B43638B6B8363CB6BC36397
:1055A40040304031403ADBD230320BD30B680360D9
:1055B4004B6843608B688360CB68C36010301031E4
:1055C400103AF3D20C3205D351F8043B40F8043BB3
:1055D400043AF9D2043208D0D2071CBF11F8013BB7
:1055E40000F8013B01D30B8803806046704700BF7D
:1055F400082A13D38B07B1D010F00303AED0C3F144
:105604000403D21ADB071CBF11F8013B00F8013B6D
:10561400A4D331F8023B20F8023B9FE7043AD9D3E4
:10562400013A11F8013B00F8013BF9D20B78037001
:105634004B7843708B78837060467047830730B52E
:1056440048D0541E002A3FD00346CAB201E0013CB0
:105654003AD303F8012B9D07F9D1032C2DD9CDB2F0
:1056640045EA05250F2C45EA054536D9A4F1100273
:1056740022F00F0C03F1200EE6444FEA121C03F152
:10568400100242E9045542E9025510327245F8D13C
:105694000CF1010214F00C0F03EB021204F00F0CD6
:1056A40013D0ACF1040323F003030433134442F88E
:1056B400045B9342FBD10CF003042CB1CAB21C442A
:1056C40003F8012B9C42FBD130BD64461346002CE9
:1056D400F4D1F9E703461446BFE71A46A446E0E7C7
:1056E4000EB410B5044683B008B183695BB106AB50
:1056F4002046059AA168019301F08EF903B0BDE834
:10570400104003B0704700F09FFDF0E70FB410B5F0
:105714000A4B82B01C680CB1A3695BB105AB20468F
:10572400049AA168019301F077F902B0BDE8104032
:1057340004B07047204600F087FDEFE77C000020AE
:1057440070B506460D46002830D0836963B384687B
:105754002C4B9C4234D02C4B9C423CD02B4B9C4237
:1057640008BFF468A3891B072ED5236963B329787E
:1057740039B932E023685A1C2260197015F8011FE8
:1057840059B3A368013B002BA360F3DAA2699342E7
:1057940001DB0A29EED12246304600F085FA0130B9
:1057A400ECD14FF0FF3070BD00F04EFDB369B4682A
:1057B400002BCDD1304600F047FD124B9C42CAD19C
:1057C4007468A3891B07D0D42146304600F0CEFA72
:1057D4000028CCD0E5E7B468C4E7A368013B002BFC
:1057E400A36008DA22460A21304600F05DFA01304F
:1057F400D7D00A2070BD0A2223681046591C2160A4
:105804001A7070BDD07E0008B07E0008907E00083B
:10581400024B01461868FFF793BF00BF7C000020CD
:1058240008B410B5002A04469DB031DB4FF402736E
:105834004FF6FF7CADF814300291069120AB15D0E1
:10584400013A0492079202A91F9A0193ADF816C077
:1058540000F08EFF421C01DA8B2323600022029B9E
:105864001A701DB0BDE8104001B070470492079251
:1058740002A91F9A0193ADF816C000F079FF431CEA
:1058840001DA8B2323601DB0BDE8104001B07047DE
:105894008B234FF0FF302360F5E700BF0CB410B545
:1058A4001E4B00291C689CB033DB4FF402734FF687
:1058B400FF7CADF81430029006901FAB16D001396E
:1058C4001E9A04910791204602A90193ADF816C0CF
:1058D40000F04EFF421C01DA8B2323600022029B5E
:1058E4001A701CB0BDE8104002B0704704910791D3
:1058F40020461E9A02A90193ADF816C000F038FFA5
:10590400431C01DA8B2323601CB0BDE8104002B0B5
:1059140070478B234FF0FF302360F5E77C000020B5
:105924000CB430B50C466FF000459DB00A4A20AB6C
:10593400059253F8042B02A9CDE901340795049587
:10594400069400F015FF0022029B1A701DB0BDE8FA
:10595400304002B0704700BF0802FFFF0EB430B5FC
:1059640004466FF000459CB00B4A1FAB0B490592EF
:1059740053F8042B086802A9CDE90134079504956E
:10598400069400F0F5FE0022029B1A701CB0BDE8DC
:10599400304003B0704700BF0802FFFF7C000020C6
:1059A4002DE9F04F81468E46444D70461EF801CBDA
:1059B40015F80C4014F00804F7D1BCF12D0FE346A0
:1059C40053D06FF00048BCF12B0F04BF9EF800B019
:1059D40000F1020E1BB1102B4FD01F4604E0BBF1A7
:1059E400300F55D00A231F460025B8FBF7F628468A
:1059F40007FB168A07E0864215D329D0012507FB49
:105A040000C01EF801BBABF1300CBCF1090F06D984
:105A1400ABF1410CBCF1190F08D8ABF1370C63455D
:105A24000DDD002DE7DA4FF0FF35EAE7ABF1610C4D
:105A3400BCF1190F03D8ABF1570C6345F1DC002D11
:105A44000BDB04B140420AB195BB1160BDE8F08F95
:105A5400E245D3DA4FF0FF35D3E72223C9F800300B
:105A64001AB340460EF1FF31EFE79EF800B04FF055
:105A74000048012400F1020EACE7BBF1300FACD1B9
:105A84009EF8000000F0DF00582807D01F46ABE75F
:105A94009EF8003003F0DF03582B0BD110279EF83B
:105AA40001B03B460EF1020E9EE74046BDE8F08F82
:105AB4008046D6E708231F4696E700BF8D7D000881
:105AC400012B02D0242B00D86AE710B500F0D0F9DE
